{
  "contractName": "Voting",
  "abi": [
    {
      "constant": true,
      "inputs": [
        {
          "internalType": "uint256",
          "name": "",
          "type": "uint256"
        }
      ],
      "name": "voters",
      "outputs": [
        {
          "internalType": "address",
          "name": "",
          "type": "address"
        }
      ],
      "payable": false,
      "stateMutability": "view",
      "type": "function"
    },
    {
      "constant": true,
      "inputs": [
        {
          "internalType": "uint256",
          "name": "",
          "type": "uint256"
        }
      ],
      "name": "votesReceived",
      "outputs": [
        {
          "internalType": "uint256",
          "name": "",
          "type": "uint256"
        }
      ],
      "payable": false,
      "stateMutability": "view",
      "type": "function"
    },
    {
      "constant": false,
      "inputs": [
        {
          "internalType": "uint256",
          "name": "candidateId",
          "type": "uint256"
        }
      ],
      "name": "vote",
      "outputs": [
        {
          "internalType": "uint256",
          "name": "",
          "type": "uint256"
        }
      ],
      "payable": false,
      "stateMutability": "nonpayable",
      "type": "function"
    },
    {
      "constant": true,
      "inputs": [],
      "name": "getVoters",
      "outputs": [
        {
          "internalType": "address[16]",
          "name": "",
          "type": "address[16]"
        }
      ],
      "payable": false,
      "stateMutability": "view",
      "type": "function"
    },
    {
      "constant": true,
      "inputs": [
        {
          "internalType": "uint256",
          "name": "candidateId",
          "type": "uint256"
        }
      ],
      "name": "getVotes",
      "outputs": [
        {
          "internalType": "uint256",
          "name": "",
          "type": "uint256"
        }
      ],
      "payable": false,
      "stateMutability": "view",
      "type": "function"
    }
  ],
  "bytecode": "0x608060405234801561001057600080fd5b506104c2806100206000396000f3fe608060405234801561001057600080fd5b50600436106100575760003560e01c80630121b93f1461005c578063cdd722531461009e578063da58c7d9146100e4578063f3084a6314610152578063ff98109914610194575b600080fd5b6100886004803603602081101561007257600080fd5b81019080803590602001909291905050506101d6565b6040518082815260200191505060405180910390f35b6100a6610381565b6040518082601060200280838360005b838110156100d15780820151818401526020810190506100b6565b5050505090500191505060405180910390f35b610110600480360360208110156100fa57600080fd5b8101908080359060200190929190505050610402565b604051808273ffffffffffffffffffffffffffffffffffffffff1673ffffffffffffffffffffffffffffffffffffffff16815260200191505060405180910390f35b61017e6004803603602081101561016857600080fd5b8101908080359060200190929190505050610435565b6040518082815260200191505060405180910390f35b6101c0600480360360208110156101aa57600080fd5b810190808035906020019092919050505061044d565b6040518082815260200191505060405180910390f35b60008082101580156101e95750600f8211155b6101f257600080fd5b601060003373ffffffffffffffffffffffffffffffffffffffff1673ffffffffffffffffffffffffffffffffffffffff16815260200190815260200160002060009054906101000a900460ff16156102b2576040517f08c379a00000000000000000000000000000000000000000000000000000000081526004018080602001828103825260178152602001807f596f75206861766520616c726561647920766f7465642e00000000000000000081525060200191505060405180910390fd5b33600083601081106102c057fe5b0160006101000a81548173ffffffffffffffffffffffffffffffffffffffff021916908373ffffffffffffffffffffffffffffffffffffffff1602179055506001601060003373ffffffffffffffffffffffffffffffffffffffff1673ffffffffffffffffffffffffffffffffffffffff16815260200190815260200160002060006101000a81548160ff02191690831515021790555060016011600084815260200190815260200160002060008282540192505081905550819050919050565b61038961046a565b60006010806020026040519081016040528092919082601080156103f8576020028201915b8160009054906101000a900473ffffffffffffffffffffffffffffffffffffffff1673ffffffffffffffffffffffffffffffffffffffff16815260200190600101908083116103ae575b5050505050905090565b6000816010811061040f57fe5b016000915054906101000a900473ffffffffffffffffffffffffffffffffffffffff1681565b60116020528060005260406000206000915090505481565b600060116000838152602001908152602001600020549050919050565b60405180610200016040528060109060208202803883398082019150509050509056fea265627a7a72315820dbd59805658c4bca3fcf219c5dbcca77e019b012b437f067bbdcde5564f3040964736f6c63430005100032",
  "source": "pragma solidity 0.5.16;\n\ncontract Voting {\n    address[16] public voters;\n    mapping(address => bool) hasVoted; // Track if an address has voted\n    mapping(uint => uint) public votesReceived; // Track number of votes per candidate\n\n    function vote(uint candidateId) public returns (uint) {\n        require(candidateId >= 0 && candidateId <= 15);\n        require(!hasVoted[msg.sender], \"You have already voted.\"); // Check if the sender has already voted\n\n        voters[candidateId] = msg.sender;\n        hasVoted[msg.sender] = true; // Mark this address as having voted\n        votesReceived[candidateId] += 1; // Increment vote count for the candidate\n\n        return candidateId;\n    }\n\n    function getVoters() public view returns (address[16] memory) {\n        return voters;\n    }\n\n    function getVotes(uint candidateId) public view returns (uint) {\n        return votesReceived[candidateId];\n    }\n}\n",
  "sourcePath": "C:\\Users\\abuzh\\Desktop\\voting\\contracts\\Voting.sol",
  "compiler": {
    "name": "solc",
    "version": "0.5.16+commit.9c3226ce.Emscripten.clang"
  },
  "schemaVersion": "3.4.16",
  "updatedAt": "2024-01-17T13:31:25.510Z",
  "networkType": "ethereum",
  "devdoc": {
    "methods": {}
  },
  "userdoc": {
    "methods": {}
  }
}