{
  "contractName": "Voting",
  "abi": [
    {
      "constant": true,
      "inputs": [
        {
          "internalType": "uint256",
          "name": "",
          "type": "uint256"
        }
      ],
      "name": "voters",
      "outputs": [
        {
          "internalType": "address",
          "name": "",
          "type": "address"
        }
      ],
      "payable": false,
      "stateMutability": "view",
      "type": "function"
    },
    {
      "constant": false,
      "inputs": [
        {
          "internalType": "uint256",
          "name": "candidateId",
          "type": "uint256"
        }
      ],
      "name": "vote",
      "outputs": [
        {
          "internalType": "uint256",
          "name": "",
          "type": "uint256"
        }
      ],
      "payable": false,
      "stateMutability": "nonpayable",
      "type": "function"
    },
    {
      "constant": true,
      "inputs": [],
      "name": "getVoters",
      "outputs": [
        {
          "internalType": "address[16]",
          "name": "",
          "type": "address[16]"
        }
      ],
      "payable": false,
      "stateMutability": "view",
      "type": "function"
    }
  ],
  "bytecode": "0x608060405234801561001057600080fd5b506103d1806100206000396000f3fe608060405234801561001057600080fd5b50600436106100415760003560e01c80630121b93f14610046578063cdd7225314610088578063da58c7d9146100ce575b600080fd5b6100726004803603602081101561005c57600080fd5b810190808035906020019092919050505061013c565b6040518082815260200191505060405180910390f35b6100906102c5565b6040518082601060200280838360005b838110156100bb5780820151818401526020810190506100a0565b5050505090500191505060405180910390f35b6100fa600480360360208110156100e457600080fd5b8101908080359060200190929190505050610346565b604051808273ffffffffffffffffffffffffffffffffffffffff1673ffffffffffffffffffffffffffffffffffffffff16815260200191505060405180910390f35b600080821015801561014f5750600f8211155b61015857600080fd5b601060003373ffffffffffffffffffffffffffffffffffffffff1673ffffffffffffffffffffffffffffffffffffffff16815260200190815260200160002060009054906101000a900460ff1615610218576040517f08c379a00000000000000000000000000000000000000000000000000000000081526004018080602001828103825260178152602001807f596f75206861766520616c726561647920766f7465642e00000000000000000081525060200191505060405180910390fd5b336000836010811061022657fe5b0160006101000a81548173ffffffffffffffffffffffffffffffffffffffff021916908373ffffffffffffffffffffffffffffffffffffffff1602179055506001601060003373ffffffffffffffffffffffffffffffffffffffff1673ffffffffffffffffffffffffffffffffffffffff16815260200190815260200160002060006101000a81548160ff021916908315150217905550819050919050565b6102cd610379565b600060108060200260405190810160405280929190826010801561033c576020028201915b8160009054906101000a900473ffffffffffffffffffffffffffffffffffffffff1673ffffffffffffffffffffffffffffffffffffffff16815260200190600101908083116102f2575b5050505050905090565b6000816010811061035357fe5b016000915054906101000a900473ffffffffffffffffffffffffffffffffffffffff1681565b60405180610200016040528060109060208202803883398082019150509050509056fea265627a7a723158209d1f301bad1ff36a364433d9ef7101ea9b837ea274e9d4eb8f449839106397d064736f6c63430005100032",
  "source": "pragma solidity 0.5.16;\r\n\r\ncontract Voting {\r\n    address[16] public voters;\r\n    mapping(address => bool) hasVoted; // Track if an address has voted\r\n\r\n    function vote(uint candidateId) public returns (uint) {\r\n        require(candidateId >= 0 && candidateId <= 15);\r\n        require(!hasVoted[msg.sender], \"You have already voted.\"); // Check if the sender has already voted\r\n\r\n        voters[candidateId] = msg.sender;\r\n        hasVoted[msg.sender] = true; // Mark this address as having voted\r\n\r\n        return candidateId;\r\n    }\r\n\r\n    function getVoters() public view returns (address[16] memory) {\r\n        return voters;\r\n    }\r\n}",
  "sourcePath": "D:\\1. IIUM Gombak\\IIUM\\Year 4\\FYP 2\\User interface\\Votingsystem\\voting\\contracts\\Voting.sol",
  "compiler": {
    "name": "solc",
    "version": "0.5.16+commit.9c3226ce.Emscripten.clang"
  },
  "schemaVersion": "3.4.16",
  "updatedAt": "2024-01-17T10:36:12.486Z",
  "devdoc": {
    "methods": {}
  },
  "userdoc": {
    "methods": {}
  }
}